:020000040800F2
:10000000480F0020CD440008B9420008BB42000858
:10001000BD420008BF420008C142000800000000C5
:10002000000000000000000000000000C3420008C3
:10003000C542000800000000C7420008C94200088D
:10004000F1440008F5440008F9440008FD440008A4
:100050000145000805450008094500080D45000850
:10006000114500081545000819450008D742000849
:100070001D4500082145000825450008DD4200080F
:10008000E342000829450008E94200082D45000820
:100090003145000835450008394500083D45000850
:1000A0004145000845450008494500084D45000800
:1000B0005145000855450008EF4200085945000821
:1000C0005D450008F5420008FB42000801430008B6
:1000D0006145000807430008134300086545000810
:1000E000694500086D450008714500087545000820
:1000F000794500087D4500088145000885450008D0
:10010000894500088D4500082743000891450008EF
:1001100095450008994500082D4300089D450008B5
:10012000A1450008A5450008A9450008AD450008FF
:10013000F8B5040001D10120F2BD04F13C05687856
:1001400020B900212970204600F078FF00F054F813
:1001500001F0F3F90146DFF8C801DFF8C831B1FB5F
:10016000F0F2206842606068984206D34FF49670BF
:1001700042434FF47A76B2FBF6F22768521C3A6299
:1001800066689E4208D27600B1FBF6F0C0F30B0120
:10019000042913D2042011E0A06820B906EB46061A
:1001A000B1FBF6F005E019225643B1FBF6F040F43E
:1001B000804001050CBF012040F400402168C86167
:1001C000E269206A0243206802602169E068014315
:1001D000206881606169A06901432068C16020686E
:1001E000016841F001010160002068602020687012
:1001F00000202063A870F2BD242068702068016888
:1002000049084900016070472DE9FC4700F0ACF84F
:1002100000F080F843D100F09FF800283FD13878F3
:1002200001283CD000F05CF8212000F047F800F0F5
:1002300081FD40B17868042802D1002139702AE09C
:100240000020387029E000F05DF8308D002829D0BA
:1002500000F06FF8C8B900F071F800F079F8308D4F
:10026000401E308531684A69530706D580B220B1F7
:10027000706A421C726200F018F800F055F800280D
:10028000E3D07868042808D102E07868042804D113
:10029000306800F07DF8012002E0032000E0022039
:1002A000BDE8F68700F066F8FAE700780861708D1F
:1002B000411E7185308D411E3185704778702A4608
:1002C0001020B870414600207860C6F82490A6F847
:1002D0002AA0DFF8B800F062708D30853046704794
:1002E0000121397030680168CA0703D4026842F0FE
:1002F00001020260234630680A9D016821F4006112
:1003000001607047009030684169009180690090F9
:100310000099704706F13C0704467878202870471A
:1003200040420F00A186010022462946304600F0D7
:1003300026BE22462946304600F007BE706A411CA0
:1003400071623168007808617047308D411E3185D7
:10035000708D411E71857047009419230122DFF8CA
:100360005014304600F07ABD0646884691469A46BB
:1003700001F016B93068016841F400710160202075
:1003800078700020B8703870704700000000FFFFE0
:10039000016841F4007101607047DFF81008E06205
:1003A00070472068016841F48071016070472DE951
:1003B000F84F044604F13D022168DFF8108AD1F8B5
:1003C00018904E694F685078DFF87C55DFF800AA26
:1003D000DFF820BADFF820CA102818BF40286ED1F5
:1003E00016F0011F04F144032ED0B8053ED5507815
:1003F000402809D1D86818B91A6802F0FE0221E035
:10040000186840F0010026E02069B0F5804F0BD15C
:100410001278212A03D1186800F0FE001CE01A6847
:1004200042F00102D2B20DE0D86820B900F0C6F85F
:1004300042F0F00206E0D868012817D100F0BEF8BB
:1004400042F0F1020A6111E0DFF8B009064205D07E
:10045000BA050BD51868C0B2086107E016EA0C0FA0
:1004600004D0B80544BF204600F080FA19EA0B0F0B
:1004700012D016EA0A0F07D0780505D52E4203D10F
:100480002046BDE8F24F0BE12E4245D0B8055CD5C1
:100490002046BDE8F24F67E116EA080F07D078055D
:1004A00005D52E4203D12046BDE8F24FA9E12E42E8
:1004B00032D0B80549D52046BDE8F24FFBE116EA37
:1004C0000C0F12D0B8051AD58A6989690020530724
:1004D00058BF01200A060146204654BFE268A269BF
:1004E000BDE8F84F92B201F061B8DFF81409064296
:1004F00005D0BB0503D52046BDE8F24FEAE219EA74
:100500000B0F2CD016EA0A0F1CD078051AD52E42F4
:1005100018D11378608D00284ED0606A451C656242
:100520000078086100F050F808BF292B44D100F092
:1005300051F821202063282010702046BDE8F24F9A
:1005400001F035B82E4237D0B80535D5608D00287A
:1005500032D0606A421C62620078086129E016EAC3
:10056000080F1BD0780519D52E4217D11378608D4E
:1005700010B3606A451C65620969017000F024F8D7
:1005800008BF2A2B18D100F025F82220206328204C
:1005900010702046BDE8F24F01F00AB82E420BD091
:1005A000B80509D5608D38B1606A421C626209697C
:1005B0000170608D411E6185BDE8F18F1A681204DB
:1005C000D20D02F006027047608D411E6185608D7C
:1005D000002870472068416821F4806141607047BD
:1005E000F8B50446DFF81C182068456946680D42D6
:1005F0000DD0F20518D5216C41F0010121646FF492
:10060000807242612068016841F40041016015F484
:10061000813F09D0F0053CD5206C40F002002064F9
:100620006FF400712068416115F4823F24D0F00519
:100630002FD504F13D004778618D0278236B202F80
:1006400008BF00290BD1212A18BF292A03D0282A44
:1006500008BF212B03D1204600F0AAFA0CE0216C40
:1006600041F0040121644078102801D100F0B6FB6C
:100670006FF480602268506115F4843F09D0F00562
:1006800007D5206C40F0080020646FF400612268F8
:100690005161206C18B12046BDE8F240C4E2F1BDC2
:1006A00038B500F13D0213785478C56A018D0029F0
:1006B00008BF212B16D1042D1EBF082DDFF84817C7
:1006C0008D4202D000F080F809E000F089F804D1F2
:1006D0000023537000F06DFF44E00021517000F0E2
:1006E00069FF3FE0212B03D0402C08BF222B39D1DA
:1006F000418D11B900F0D3F834E0517840292FD161
:1007000000F14803996889B900685968012905D141
:100710001A68D2B202619868801C05E01968090461
:10072000090E01619868401C98601BE099680129D6
:1007300007D11A680068D2B202619968491C9960B1
:1007400010E0996802290DD11378222B05D1006899
:10075000016841F48071016004E01278212A01D11E
:1007600000F028F8002032BD10B5C36A00F13D0248
:100770001478212C1AD1418D11B100F01BF815E02D
:10078000042B1EBF082BDFF880168B4202D000F02E
:100790001BF809E000F024F804D10023537000F0A6
:1007A00008FF03E00021517000F004FF002010BD9D
:1007B00002001000416A4A1C426202680978116115
:1007C000418D4A1E4285704701684B6823F4E063FF
:1007D0004B6011210163002151702021117070477D
:1007E00001684B6823F4E0634B6001680B6843F4D5
:1007F00000730B60002101632021117051784029A2
:10080000704710B500F13D010A78222A45D1428D8A
:10081000042A02D300F09AF83FE0022A18BF032A04
:1008200013D10168C26A0B68022A08D023F48063DE
:100830000B6001680A6842F400620A6002E043F457
:1008400080630B6000F02BF827E00268C36A022B7C
:1008500004D0146824F48064146003E0136843F443
:100860008063136000F021F8426A531C43620368FE
:100870001C691470428D531E4385002220230B7087
:1008800002634A78402A04D100234B7000F093FEA3
:1008900003E000224A7000F08FFE002010BD0068C7
:1008A000416821F48061416070470268536823F415
:1008B000E0635360704780B5C16A438DDFF8482517
:1008C000032B07D104291CBF0829914237D100F01E
:1008D000F2F834E0438D022B31D104291CBF0829E2
:1008E00091420ED00268022904D0116821F480617F
:1008F000116003E0136843F48063136000F030F884
:1009000006E000F02DF801680A6842F400720A60FF
:1009100000F01CF800F01AF800F13D0120220A70E6
:10092000002202634A78402A04D100234B7000F071
:1009300042FE06E000224A7000F03EFE01E000F0B8
:1009400005F8002002BD000004000100416A4A1CB5
:100950004262026813690B70418D4A1E42857047DE
:1009600001684A6822F440724A60704738B500F165
:100970003D014A78C36A046B0D78222D40F08580D2
:10098000016D002908BF402A02D1002200927EE0BA
:10099000016D002904BF0269B2F5404F07D100F094
:1009A00081F842F480720A60016D491C6BE0418D50
:1009B00011B9002200922BE0418D012933D1DFF8DB
:1009C000482493420DD100F076F801684A68130577
:1009D00010D4002200924B6900938A690092009B18
:1009E0001CE0042B1CBF082B122C0DD00168C26A1E
:1009F000022A04D00B6823F480630B6040E00A688D
:100A000042F480620A603BE000F055F8002100915A
:100A100001684A6900928B690093009A0A6842F45F
:100A200000720A602EE00168428D022A1CD1C36A5E
:100A3000022B0AD00A6842F400620A60002100F02A
:100A400031F822F480620A6005E00B6843F48063A9
:100A50000B6000F036F801684A68130512D54A6841
:100A600042F480524A600DE00B6843F480630B60EF
:100A700001684A68130503D54A6842F480524A6007
:100A800000F01FF80021016504E0002100910068DA
:100A900000F002F8002032BD4169009180690090A9
:100AA00000997047009101684A6900928B69009330
:100AB000009A0A68704701680A6822F480620A6036
:100AC00070470021009101684A690092896900918C
:100AD000009A70477CB500F13D02137801684C68BC
:100AE00024F4E0644C600021009101684C6900949A
:100AF0000D6845F001050D60009901680C6824F44B
:100B000080640C60046861680D050DD51578222D90
:100B10001CBF11782A2903D1856B29684E6802E031
:100B2000416B0D686E684685418DD1B16569690775
:100B300007D5416A4D1C456224690C70418D4C1EDD
:100B4000448501684C69650607D5446A651C4562A1
:100B500009692170418D4C1E4485016C41F00401EE
:100B60000164016C11B100F05FF81CE0282B1CBF80
:100B70002A2B292B0BD1DFF89012C16200210163CF
:100B8000202111700021517000F017FD0BE0016B66
:100B9000222918BF222B06D10023036320211170C4
:100BA000537000F005FD002076BD00000000FFFF3F
:100BB00038B500F13D016FF480620B78C46ADFF84C
:100BC0004852042C14BF082C282B15D1C562036889
:100BD0005C6824F4E0645C6003685A61026814682D
:100BE00024F4806414600022026320220A70002230
:100BF0004A7000F0E2FC15E0212B11D1C5620363BD
:100C000020230B7000234B7001684B6823F4E063D2
:100C10004B6001684A61FFF74EFF00F0C8FC01E03D
:100C200000684261002032BD38B5044604F13D053C
:100C30002878292818BF2A2804D1002020632820DA
:100C400028700BE02878602805D0216848680105E5
:100C50005CBF2021297000202063687000F05CF8E0
:100C6000206841680A0523D5416821F4006141608C
:100C7000606B0FF2991190F82120012A09D041638D
:100C8000606B00F031FD002829D000F04BF8606B5C
:100C90000BE0A06B4163A06B00F026FDF8B120686B
:100CA00000F031F800F03EF8A06B416B884716E089
:100CB000297860290ED120222A700022226400F0B7
:100CC00022F820680168490849000160204600F0C8
:100CD00086FE04E000F017F8204600F081FE287838
:100CE00028280FD1216C48070CD5FFF756FB0020B0
:100CF000206320202870002068702046BDE8324024
:100D000000F05BBC31BD41694A0604D5616A4A1CEA
:100D100062620069087070472068016821F4006110
:100D2000016070472068016849084900016020207F
:100D300028707047F8B504460D46E06A04281EBFC7
:100D400001283149884216461F4602D1FFF729FB88
:100D500003E0206B122800F031F80097334600F0D2
:100D600028F810BB2069B0F5804F04D1216805F048
:100D7000FE050D610EE0E809216800F0060040F074
:100D8000F00008613B4632461C4900F030F838B9A3
:100D900000F020F83B463246174900F028F828B109
:100DA000206C042801D10120F2BD0320F2BD009681
:100DB000534600224FF0011120464FE004D1206835
:100DC000036843F480730360704700004000010033
:100DD000800001002068EDB205617047206801685D
:100DE00041F400710160704733464A46414620464F
:100DF0006AE0000004001000020001000800010089
:100E000010000100000101000000FFFF406A0168BE
:100E10000A6822F480620A6000214185426B5163B6
:100E2000826B516300F13D010B78602B0BD12022C6
:100E30000A7000224A70026401680A68520852006F
:100E40000A6000F0CCBD20230B7000224A700168BC
:100E50000A68520852000A6000F0C2BD2DE9F8434A
:100E60000F46089C3D020646904699462D0E306876
:100E7000012D1ED14069384080B2B9B288421ED0DF
:100E8000002040451DD119F1010FF0D0B9F1000F3C
:100E900004D000F085FB001B8145E8D200203063C0
:100EA000202106F13C004170002181700170032077
:100EB00008E08069384080B2B9B28842E0D10120B0
:100EC000DFE70020BDE8F2832DE9FC410F463E023A
:100ED000054614469846360E2868012E18D14169F9
:100EE000394089B2BAB2914218D041694A0517D542
:100EF000026842F4007202606FF480602968486101
:100F000005F13C0004224260002100F05FF81AE085
:100F10008169394089B2BAB29142E6D1002012E02B
:100F200014F1010FD8D02CB100F03AFBA0EB08006F
:100F30008442D1D200202863202105F13C00417079
:100F4000002101700320BDE8F68170B505460C460E
:100F500016462868416908060FD4284600F03DF877
:100F600008B1012070BD14F1010FF2D024B100F0DE
:100F700017FB801B8442ECD21BE0002070BD70B5D3
:100F800005460C4616462868416948070FD428468E
:100F900000F023F808B1012070BD14F1010FF2D068
:100FA00024B100F0FDFA801B8442ECD201E0002065
:100FB00070BD05F13C000022416841F02001416014
:100FC0002A63202141700270032070BD2963202113
:100FD0004170002101700120704701684A69530582
:100FE0000DD56FF480634B6100F13C0104224A602F
:100FF00000220263202048700A7001207047002000
:101000007047000080B51C481C4901601C494160C4
:1010100000218160C1604FF4804101610021416184
:101020008161C1610162FFF783F830B1BDE804401E
:101030005FF0420115A000F0BFBE01BD00680F497E
:10104000884200D07047F8B54FF4406100911220FB
:1010500003210190039169460A4800F0AFFE0A4857
:10106000016841F480010160006800F48000009094
:10107000009805B000BD0000B408002000580040F2
:10108000A0860100000C01401C100240453A5C554E
:10109000736572735C626572747A5C446F63756DBC
:1010A000656E74735C4769744875625C4253507630
:1010B000322E315C5372635C6932632E6300000030
:1010C0002DE9F8430646DFF898543078C1074AD531
:1010D000686800F00C00042807D0686800F00C0075
:1010E00008280BD16868C10308D5296888033AD558
:1010F0007068002840F0C080012069E17068B0F598
:10110000803F0FD038B9296821F4803129602868E0
:1011100020F4802009E0B0F5A02F296807D141F420
:1011200080212960286840F48030286006E021F49E
:10113000803129602A6822F480222A60706868B1B0
:1011400000F02EFA04462968880300F1958000F02B
:1011500027FA001B6528F6D3032039E100F020FAB6
:1011600004462868810340F1878000F019FA001BCB
:101170006528F6D3F0E700F013FA001B022840F2CE
:10118000AA80E9E7306970B10121396000F008FAFE
:1011900004462868810700F1DC8000F001FA001B9A
:1011A0000228F6D9D8E7386000F0FAF90446286832
:1011B000810765D500F0F4F9001B0228F7D9CBE7C9
:1011C000086000F0EDF90446686A810777D500F001
:1011D000E7F9001B0228F7D9BEE708B9286A09E039
:1011E0000528286A06D140F004002862286A40F0E9
:1011F000010005E0400840002862286A20F0040051
:10120000286241F28938F06868B100F0C9F9814676
:10121000286A810700F1AA8000F0C2F9A0EB09005A
:101220004045F5D398E700F0BBF98146286A81076D
:1012300040F19C8000F0B4F9A0EB09004045F5D3E3
:101240008AE700F0ADF9001B022840F2A28083E794
:1012500000F0A6F9001B022840F2B5807CE700F000
:10126000B9F804462868810140F1B18000F098F98E
:10127000001B0228F6D96FE73078DFF8F07281079B
:101280001BD5686810F00C0F09D0686800F00C00DE
:1012900008287FF477AF6868C1033FF573AF29680A
:1012A000880703D5306901287FF426AF2968706963
:1012B00021F0F80141EAC0012960317808071DD505
:1012C000B069DFF8AC1200283FF47AAF01220A605F
:1012D00000F066F90446686A81077FF54CAFDFF8D5
:1012E00084120868C0084FF47A72B0FBF2F20092E0
:1012F00000BF0098411E00280091F9D130784107C5
:1013000039D5E8690024C10009D4E86940F080506B
:10131000E8610124E86900F0805000900098DFF84F
:101320005482D8F80010C8051BD4D8F8000040F447
:101330008070C8F8000000F033F98146D8F800103A
:10134000C8050ED400F02CF9A0EB09006528F5D3F0
:1013500002E72868716920F0F80040EAC1002860BF
:10136000ABE7F06801287FF438AF3FE71CB1E869CC
:1013700020F08050E861F06948B3696801F00C0121
:1013800008293FF4B9AE02287FF469AF00F022F8D3
:101390000446286881013FF554AF306AB0F5803FBC
:1013A00005D16968B06821F400310143696069685A
:1013B000306A21F474110143706A014369600120AD
:1013C00000F009F80446286881017FF541AF00204C
:1013D000BDE8F2830020386600F0E2B82DE9F8435A
:1013E000654F05463868894600F00700484502D237
:1013F00000F07AF86CD12978594C880705D56168D6
:10140000A86821F0F001014361602878C10757D531
:101410006868012802D121688A0303E0022803D109
:1014200021688A0103D453E02268910750D561688E
:10143000890840EA8100606041F2893800F0B0F824
:101440000646686801280BD1606800F00C0004288B
:1014500036D000F0A5F8801B4045F5D303202DE0E1
:10146000022837D1606800F00C00082828D000F06E
:1014700097F8801B4045F5D3F0E72878410705D55C
:101480006168E86821F4E061014361602878010740
:1014900006D56068296920F4605040EAC1006060A8
:1014A00000F02CF862683549C2F30312895C2D4ABA
:1014B000C8401060002000F07BFD0020BDE8F283F2
:1014C000386800F007008145D7D200F00DF8D4D07D
:1014D0000120F3E7606810F00C0FF1D000F060F825
:1014E000801B4045F6D3B9E73968C90849EAC1010C
:1014F0003960386800F007004845704720490A689D
:1015000002F00C00082813D120A3C2F38340D203B9
:10151000185C0AD5096800BF20A3134AC1F34041F3
:10152000595CB2FBF1F14843704716494843704794
:101530000D4870470B48006870470A48104A006819
:1015400013681149C3F3022206E006480C4A0068FA
:1015500013680D49C3F3C222895CC840704700007C
:10156000001002402C01002000127A0000004242CC
:10157000800442420070004000200240BC4300084A
:101580000410024000093D00E8440008020304057D
:10159000060708090A0B0C0D0E0F101001020000BF
:1015A00001480068704700BF400B0020704770473B
:1015B00070477047704770477047704730B508B93B
:1015C000012030BD0268DFF8B0138A4200F1280321
:1015D00006D2DFF8A81300F02DF8DFF8A41305E019
:1015E000DFF8A01300F026F8DFF89C135961022100
:1015F00080F82110146841686FF30D140C43816862
:101600000C43C1680C4301690C4341690C43816977
:101610000C43C1690C431460002119605960996042
:10162000D9601961012180F82110002180F8201073
:10163000002030BD8C181425B4FBF5F4A4009C6187
:101640007047F8B50446002594F82000012801D120
:101650000220F2BD94F821000126012884F82060C0
:1016600024D1022684F8216004F12C06F56020685C
:1016700007687F087F000760204600F09FF9216817
:10168000306820B10A6842F00E020A6008E008687B
:1016900020F0040008602068016841F00A01016040
:1016A0002068026842F00102026002E084F82050E3
:1016B00002252846F2BD10B501680A6822F00E0224
:1016C0000A6000F13C020B685B085B000B600124C0
:1016D00051688C4011684C600122002180F8212063
:1016E00080F82010002010BDF8B590F821200024CB
:1016F000022A00F1340103D00420486001245FE095
:101700000268DFF88862136823F00E0313604FF459
:101710008077026815686D086D0015604FF480329F
:101720000368B3424FF4805519D9DFF84C62B342D5
:1017300008BF012210D0DFF85862B34208BF102260
:101740000AD0DFF85062B34208BF3A4604D0DFF84F
:101750004862B34208BF2A46DFF8403227E0DFF88C
:1017600040C263451CD0DFF83CC263451AD0DFF8A5
:1017700038C2634518D0DFF83472BB420EBF2A4628
:10178000DFF82C52AB4210D0DFF82852AB4208BF32
:101790004FF4801209D0B34207D14FF0807204E0B9
:1017A000012202E0102200E03A46DFF80C321A6013
:1017B000012280F8212080F82040096801B1884783
:1017C0002046F2BD2DE9F84F00F1280204275169A7
:1017D000734BD1F800E004686C4925689669DFF81E
:1017E000BC81DFF8B491DFF8ACA1DFF8A4B1DFF879
:1017F00088C1B7401EEA070F4AD06F0748D5256851
:10180000AD0603D4256825F0040525604FF4802437
:1018100007688F424FF480454FF4806611D96745C1
:1018200008BF04240AD05F4508BF402406D05745AE
:1018300008BF344602D04F4508BF2C46C8F80040C8
:1018400020E09F4217D0574B9F4216D0564B9F42E5
:1018500015D0564B9F420EBF2C46554B9F420FD082
:10186000544B9F4208BF4FF4800409D08F4207D1E8
:101870004FF0806404E0042402E0402400E0344699
:101880004D490C605168002974D0BDE8F44F0847F9
:101890000227B7401EEA070F4FD0AF074DD5256886
:1018A000AD0606D4256825F00A052560012480F8D8
:1018B00021404FF4003407688F424FF400554FF435
:1018C000007611D9674508BF02240AD05F4508BFDA
:1018D000202406D0574508BF344602D04F4508BFE4
:1018E0002C46C8F8004020E09F4217D02D4B9F4265
:1018F00016D02D4B9F4215D02C4B9F420EBF2C462D
:101900002B4B9F420FD02B4B9F4208BF4FF400142C
:1019100009D08F4207D14FF0007404E0022402E0A6
:10192000202400E0344624490C60002180F8201077
:101930001168F9B1BDE8F44F0847082101FA06F62D
:101940001EEA060F16D0290714D5216821F00E01D2
:101950002160012391698B4051694B600123002173
:10196000136180F8201080F82130916811B1BDE832
:10197000F44F0847BDE8F18F08040240F8FFFDBFAF
:1019800000000240F8FBFDBF00040240800002405E
:101990001C0402403004024044040240040402409B
:1019A000080002401C000240300002404400024097
:1019B000580002406C0002400400024038B5046C3C
:1019C0000125A540C46B6560046863604068102809
:1019D00002D1A260E16031BDA160E26031BD70471B
:1019E00070470000FEB500F0F7FA00F0F8F800F0DC
:1019F00005FB00F09FFB00F0ADFBFFF703FB00F0E1
:101A00003FFC00F0B3FC00F0D1FC00F081FD00F0E1
:101A10008AFD00F005FD00220021252000F05EFE79
:101A2000252000F078FE00220021262000F056FE3E
:101A3000262000F070FE00220021322000F04EFE31
:101A4000322000F068FE002200211E2000F046FE39
:101A50001E2000F060FE002200210B2000F03EFE60
:101A60000B2000F058FE002200210F2000F036FE6F
:101A70000F2000F050FE00220021102000F02EFE6A
:101A8000102000F048FE00220021122000F026FE67
:101A9000122000F040FE00220021212000F01EFE56
:101AA000212000F038FE00220021222000F016FE46
:101AB000222000F030FEB848B84CB94E00F073FE5A
:101AC000B84800F070FEB84800F06DFE01F014F860
:101AD000052001F005F9052001F030F901F0A7F922
:101AE000B24801F0FDF9002001F04EFA6421002017
:101AF00001F056FA0A202071207340F22B1543F6AC
:101B0000982060624FF6FF7738E0E08326E0607C43
:101B100002280CD1E2208DF80500012100208DF86B
:101B2000021060743A460721684601F0B2F9217E3E
:101B3000B1B1607E0028E8D0E18B715C002001F03B
:101B40002FFAE08B305C394601F088F9E08B401CBD
:101B5000E08380B2B0F5967FA8BFE58300202076B1
:101B6000607D18B101F032FA00216175A07D18B1D5
:101B70000021A17501F0CFF901F0CEF901F04EFB83
:101B800001F053FB01F0F1FBE07C18B100F0A8F884
:101B90000021E174207D28B101F0A6F801F0D2F80F
:101BA0000020207501F010F801F05AF85B208DF844
:101BB0000000E32100208DF803008DF804008DF86B
:101BC00001105D208DF80600A07C02289FD1002125
:101BD000E3208DF802108DF80500A174A2E700B58E
:101BE000002195B001200D910B90022112914FF42C
:101BF00080300C90012213904FF4E0110F92149159
:101C00000BA8FFF75DFA00B1FEE70F21022000915B
:101C1000019000214FF48060029103900491684686
:101C20000221FFF7DBFB00B1FEE7022005904FF435
:101C30000041079105A801F0E5FB00B1FEE7FFF7C1
:101C400079FC4FF47A71B0FBF1F000F06EFD0420E6
:101C500000F07FFD002200214FF0FF3000F03EFD3C
:101C600015B000BDF0B54C4904680B684D494B4AAE
:101C7000A34204BF0123D3740E680768956A938B4F
:101C8000146ABE421AD10126117C167549B1516AF7
:101C900096766D1CA94204D2002100251174567459
:101CA00095765B1C99B2C929A4BF56750023641CA4
:101CB00042F211718C4224BF967500249383146202
:101CC0009562394B00681C68D17D844206D1491C5D
:101CD000C8B2022802DB012000211076D175F0BDC8
:101CE00038B5334D082128462C4C00F032F92070CD
:101CF0001021284600F02DF921782E4D2072002960
:101D000004BF607800281ED1E0782179401CE07083
:101D1000C0B281421AD2012068700020E070E878D9
:101D2000012813D10021698000F03FFF607C012869
:101D300004BF02216174A07C012807D10021022088
:101D40002174A07402E000206870E0702078217A8D
:101D50006070002904BF607A002817D1E07A217BE7
:101D6000401CE072C0B2814213D2012028700020D2
:101D7000E072E87868B90121E970A87000F015FFF9
:101D8000A87C30B10021A974A16202E00020287073
:101D9000E072207A607231BD4C090020BC0A00203C
:101DA000000000208C090020CC0900207856341255
:101DB000000C0140040B0020FEE700002DE9F84F65
:101DC00083460F46002080466A496B4A6B4B4FF0B2
:101DD0000F094FF0010A3C680AFA08F606EA040EF9
:101DE000B64540F0AE807C683CB3012C1AD0022C82
:101DF0001DD0032C2ED0112C16D0122C1AD0604DD1
:101E0000AC421CBF5F4DAC4217D05F4DAC421CBF13
:101E10005E4DAC4211D05E4DAC421CBF5D4DAC423C
:101E20000BD018E0F86816E0F868001D13E0F868B9
:101E3000083010E0F8680C300DE0B86808B90420EC
:101E400009E0012819BF0820CBF814600820CBF85E
:101E5000106000E00020BEF5807F03D2DC464FEA30
:101E6000880404E0A8F108040BF1040CA400DCF8D9
:101E7000005009FA04F6B54300FA04F42C43CCF8F8
:101E800000407C68E4005CD51C6844F001041C60E0
:101E90004FEA980C1D6805F001050095009C52F86A
:101EA0002C604FEA880404F00C0409FA04F526EAD1
:101EB0000505394EB34508BF002618D0374EB34547
:101EC00008BF012613D0364EB34508BF02260ED0F8
:101ED000344EB34508BF032609D0334EB34508BF7F
:101EE000042604D0314EB3450CBF0526062606FA5B
:101EF00004F42C4342F82C406FEA0E067C68E5039C
:101F000004D50D684EEA05050D6002E00C6834400A
:101F10000C607C68A5034C684CBF4EEA0404344056
:101F20004C607C68E5028C684CBF4EEA0404344087
:101F30008C607C68A502CC684CBF4EEA0404344037
:101F4000CC6008F10108B8F10F0F7FF644AFBDE88F
:101F5000F18F8068084018BF0120C0B2704781B07F
:101F600002B90904016101B07047C2685140C16003
:101F700070470000000401400800014018100240B2
:101F800000001110000012100000211000002210AB
:101F9000000031100000321000080140000C014028
:101FA000001001400014014000180140001C0140D5
:101FB00010B508490A6804464FF47A70B2FBF0F095
:101FC00000F0B3FB002221464FF0FF3000F086FB0B
:101FD000002010BD2C01002080B50748016841F0A9
:101FE00010010160032000F06CFB0020FFF7E0FF10
:101FF00001F07CFA002002BD00200240F0B53F480D
:102000003F4C404D404E85B0016841F010010160E9
:1020100042F2C607026802F01002049204990168B5
:1020200041F020010160026802F02002049204994C
:10203000016841F004010160026802F004020492A8
:1020400000220499016841F00801016039460068E6
:1020500000F00800049004982046FFF780FF00225B
:1020600010212846FFF77BFF00224FF43241304613
:10207000FFF775FF0120022101900391009700F006
:1020800055F8102000F044F869462846FFF796FE00
:102090004FF4887000900021012000F045F889205D
:1020A00000900021012000F039F84FF4324000F098
:1020B0002FF800F035F844F2600000210090019103
:1020C000029130466946FFF779FE4FF400700090A8
:1020D0000021022000F028F8042000210090019146
:1020E000029169460948FFF769FE1020009000211F
:1020F000022000F013F805B0F0BD000018100240F7
:102100000010014000080140000C01400014014093
:1021100000900121022001910390704701910290EB
:1021200069463046FFF74ABE019102906946204653
:10213000FFF744BE064881B0016841F0010101602B
:10214000006800F001000090009801B0704700BFE7
:10215000141002403EB5374C374800BF3BA5206005
:102160004FF48070A0600020E06060614FF4602058
:10217000E0610020606002202061204601F0FCF94F
:1021800018B145212846FFF717FE0D2000900121C8
:102190000720019102906946204601F0EDFA18B13E
:1021A0004F212846FFF708FE1020022100900191E0
:1021B0002046694601F0E0FA18B158212846FFF799
:1021C000FBFD37BD30B5044685B020681A4988420A
:1021D0002DD11A481A4D016841F40071016008219F
:1021E000006800F4007000900322009815480191E7
:1021F000029201A9FFF7E2FD00206860A86080203C
:10220000E8604FF4007028614FF40060686120209E
:10221000A86100200C49E86129602846FFF7CEF943
:1022200018B17C2109A0FFF7C7FD25626C6205B0DB
:1022300030BD00008C0A002000240140181002402C
:10224000080900200010014008000240453A5C5592
:10225000736572735C626572747A5C446F63756DEA
:10226000656E74735C4769744875625C425350765E
:10227000322E315C5372635C6164632E6300000034
:1022800080B52948294901604FF4827141600021DD
:1022900081604FF40061C1600021016141614FF430
:1022A000007181610821C161002101624162816286
:1022B0000A21C16201F00EFB28B1BDE804404521AE
:1022C0001DA0FFF779BD01BD00681849884200D004
:1022D000704718B51648174C85B0016841F4805115
:1022E0000160A021006800F4805000900222009854
:1022F000019103200490029201A92046FFF75EFDA0
:1023000040200021019002910391204601A9FFF78E
:1023100055FD00220021232000F0E0F9232000F0E9
:10232000FAF906B010BD00005C0800200030014042
:102330001810024000080140453A5C5573657273FD
:102340005C626572747A5C446F63756D656E7473FC
:102350005C4769744875625C42535076322E315C3A
:102360005372635C7370692E63000000544838B583
:10237000544C00BF59A5206086B047206060002003
:10238000A060632000F03AF810B1412100F03DF860
:1023900000F02DF810B1472100F037F800F038F8C0
:1023A00010B14E2100F031F807B030BD464838B5C5
:1023B000464C00BF49A5206086B0472060600020E1
:1023C000A06040F2E73000F019F810B1602100F091
:1023D0001CF800F00CF810B1662100F016F800F0BF
:1023E00017F810B16D2100F010F807B030BD4FF4B0
:1023F0008050029002A9204600F096BAE0600020CA
:102400002061A061204600F0C1B92846FFF7D4BC86
:102410000020009001906946204601F09DBA00001E
:102420003EB52B4C2B4800BF2CA5206040F2671016
:1024300060600020A06040F2CB10E0600020A0614E
:10244000204600F0A3F910B17D21FFF7DEFFFFF772
:10245000DFFF10B18421FFF7D8FF37BD80B50068DA
:10246000174A1D49904207D1086840F004000860EF
:10247000096801F0040109E0134A904209D1086893
:1024800040F008000860096801F008010091009818
:1024900001BD104A904212D1086840F01000086057
:1024A0000022096801F010010091002100983620F7
:1024B00000F014F9BDE80240362000F02CB901BD4F
:1024C000000800404C090020000C00408C0900204E
:1024D000CC090020001000401C100240453A5C5519
:1024E000736572735C626572747A5C446F63756D58
:1024F000656E74735C4769744875625C42535076CC
:10250000322E315C5372635C74696D2E630000007F
:1025100080B54F484F4900F011F818B1BDE80440AC
:1025200046211BE001BD80B54B484C4900F006F840
:1025300018B1BDE80440592110E001BD01604FF41D
:10254000E131416000218160C16001610C21416184
:1025500000218161C16101F025BA000044A0FFF7AC
:102560002BBC00002DE9F841044685B02068394AAB
:102570003FA53B4E3B4FDFF8F0803C49904226D1CF
:10258000086840F4804008600222096801F4804134
:1025900004914FF4007100F052F84FF4806000F0A5
:1025A00045F800207060B06037608020F060002047
:1025B00030617061B061F0613046FEF7FFFF18B125
:1025C00084212846FFF7F8FB666374622BE0234AF8
:1025D000904228D1486840F40030486002224868A0
:1025E00000F400300490042100F029F8082000F0E5
:1025F0001DF807F1140070640020B064F0648020BE
:10260000306500207065B065F065306606F1440005
:10261000FEF7D4FF18B1AF212846FFF7CDFB06F136
:1026200044006063B46606B0BDE8F081009000210C
:1026300001200191029069464046FFF7BFBB049814
:10264000009103200390019269464046FFF7B6BB14
:102650000C0A0020003801404C0A002000440040D1
:102660006407002058000240000801401810024092
:10267000453A5C55736572735C626572747A5C444A
:102680006F63756D656E74735C4769744875625CE1
:1026900042535076322E315C5372635C75736172B3
:1026A000742E63000901020081B006D52F4A00F0A4
:1026B0000F00104400F8041C01E02D4B195401B028
:1026C00070472C4A13684FF6FF0100020B4000F4DC
:1026D000E0601843284908431060704738B5254B1F
:1026E0001C68C4F30223C3F10704052C28BF04248B
:1026F0001D1D072D34BF0023DB1E012505FA04F440
:10270000641E2140994005FA03F35B1E1A401143F1
:10271000BDE83440C6E7012200F01F01174BFFE778
:102720008A40400943F82020704710B5401EB0F1A0
:10273000807F01D3012010BD114C60600F214FF04C
:10274000FF30FFF7AFFF0022A260072020600020CB
:1027500010BD04280A4904D1086840F0040008604C
:1027600070470A6822F004020A60704718ED00E022
:1027700000E400E00CED00E00000FA0500E100E0FC
:1027800010E000E000F000B87047000038B5040029
:1027900001D1012032BD00F01FF818B900F018F87F
:1027A000FFF75CFE0AE00068C16841F00101C1600A
:1027B000026842F001020260002070470220687047
:1027C000211D206800F01BF901206870002032BD37
:1027D000002129702046704704F13C056878704755
:1027E00010B50446206801698A0715D5C1688A07B3
:1027F00012D56FF00202026101212177806910F089
:10280000030F204602D001F0D9FB03E001F0D7FB13
:1028100000F087F800202077206801694A0715D565
:10282000C1684A0712D56FF00402026102212177C4
:10283000806910F4407F204602D001F0BFFB03E026
:1028400001F0BDFB00F06DF80020207720680169E1
:102850000A0715D5C1680A0712D56FF00802026190
:1028600004212177C06910F0030F204602D001F047
:10287000A5FB03E001F0A3FB00F053F80020207754
:1028800020680169CA0615D5C168CA0612D56FF05D
:102890001002026108212177C06910F4407F2046B0
:1028A00002D001F08BFB03E001F089FB00F039F866
:1028B0000020207720680169CA0708D5C168CA07C7
:1028C00005D56FF0010202612046FFF7CBF92068C1
:1028D00001690A0608D5C1680A0605D56FF08002AD
:1028E0000261204601F06CFB206801694A0608D5A8
:1028F000C1684A0605D56FF040020261204601F02A
:1029000060FB206801698A060AD5C1688A0607D576
:102910006FF0200202612046BDE8104001F052BB7A
:1029200010BD204601F04FBB38B500F05DF801D175
:10293000022032BD01222270022060702A68DFF876
:1029400034019368034093600868002837D010284A
:1029500037D0202837D0302837D040282BD05028E7
:102960001ED0602820D070280BD0B0F5805F03D037
:10297000B0F5005F0CD02CE028688168C908C90058
:102980000CE000F028F82868816841F0770105E044
:1029900000F021F82868816841F48041816018E0E6
:1029A00000F01EF8502111E0CA684968286800F05C
:1029B0007CF860210AE000F013F8402106E00021D5
:1029C00004E0102102E0202100E03021286800F01E
:1029D0007EF80FE00000CB684A68896828687EE0CE
:1029E000CA684968286851E0054605F13C0420782A
:1029F00001287047012060700020207032BDF0B5C2
:102A0000DFF874C01D4F03681D4C1E4D1E4E6045FF
:102A100018BFB84208D0B0F1804F18BFB04203D001
:102A2000A84218BFA0420DD14A6823F07003134397
:102A3000604518BFB84207D0B0F1804F1CBFB0420C
:102A4000A84201D0A04203D1CA6823F440731343C3
:102A50004A6923F080031343036060458A68C262B9
:102A60000A68826212BFB8420969016301214161AB
:102A7000F0BD00008800FFFF002C01400034014041
:102A8000000C0040000800400004004010B5036A3C
:102A9000046A64086400046223F00A03846924F071
:102AA000F00444EA0214846123E010B5036A23F0C1
:102AB000100303628369046A23F4704343EA023318
:102AC00024F0A004836144EA0114046210BD82680A
:102AD00022F07002114341F007018160704710B588
:102AE000846824F47F442143114341EA0321816037
:102AF00010BD1943016210BD10B501224FF4004111
:102B00006F48704CFFF72BFA012240212046FFF757
:102B100026FA012200F011F86B4800218170012192
:102B2000C1700021418141728174C173642001F040
:102B30004BFA002010BD634C002280212046FFF795
:102B40000EBA00F03CF8002240212046FFF707FAB9
:102B5000002010BD70B504462000594D594E0AD1D1
:102B60009621002000F01CFA00F015F8002200F079
:102B700017F800F00BF8012C06D100F00CF8012238
:102B800000F00EF800F002F8002070BD0022402195
:102B90003046FFF7E4B9002280213046FFF7DFB965
:102BA0004FF400412846FFF7DAB910B5454C012231
:102BB000FFF7C3FF012200F002F80122C4E74FF43F
:102BC00000413F48FFF7CBB910B53F4C2078617802
:102BD00009B1B0B170E0F8B13C480178002904BFF8
:102BE000207B00283AD100F059F804BFA0780028D3
:102BF00004D1E178012932D1012028E000F054F815
:102C00002CE0217C29B1E07818B90121217260748F
:102C100010BD607C10B34CE0A07888B1E178012948
:102C20001CD1207B002802BF29498878002815D0B4
:102C3000FFF7BBFF00210120A1702074A0740DE0FC
:102C4000207C30B10120A074E17000F02DF82072DA
:102C500004E0E078012804BF01212172002010BDAA
:102C600010B5194C217AB9B1A07810B100212172A8
:102C700012E000F031F8E178002904BFA07C0028C0
:102C800002D1144B01221A70012903D164210020C2
:102C900000F086F900202072002010BD207C00B1D9
:102CA0002174617C01297047002020740120607428
:102CB00070470020208210BDFFF777FF012010BD74
:102CC000000C014000100140040B0020D60A002037
:102CD000300B0020D50A00200120A070E07839E7F1
:102CE000144948700020704780B54FF48041124865
:102CF000FFF72FF90F4AD070002804BF117900297F
:102D000010D1907898B910785178401C1070C0B2EA
:102D100081420CD20120907000201070012000F040
:102D2000EEF804E000209070107000F0E8F8002049
:102D300002BD0000300B0020000C01401A49087150
:102D40000020704738B510211848174C184DFFF770
:102D500000F92070002804BF6178002911D1287B78
:102D6000E8B9E0782179401CE070C0B2814216D207
:102D70000120A0700020E0700120287300F0BCF852
:102D80000DE0A07838B10B4A0121117000200A4AE9
:102D9000107000F0B1F800202873A070E070207867
:102DA0006070002032BD0000380B00200010014090
:102DB000040B0020CE0A0020D60A00201CB50068B3
:102DC0000168CA0609D5002000903F4C00F016F8B3
:102DD000606B016848683D4919E013BD1CB5006887
:102DE0000168CA0609D500200090394C00F006F8A9
:102DF000606B01684868374909E013BD20680168C5
:102E00000091406800902046009900F0A9BEC0F5EE
:102E10000070488002B0087840F0010001F8040B0F
:102E20004FF400722046BDE8104000F050BE80B55F
:102E3000254800F00BF8284900F049FE0022022145
:102E4000FFE72648FFF78BF8002002BD0168CA683B
:102E500042F01002CA604FF40072704738B58DF826
:102E600000000C461D4D012202212846FFF777F88D
:102E7000234601226946144800F0D0FD0446002292
:102E800002212846FFF76BF8200018BF01242046D6
:102E900032BD70B504460D46104E01220221304667
:102EA000FFF75DF84FF6FF732A462146064800F00B
:102EB000B5FD0446002202213046FFF750F82000FD
:102EC00018BF0124204670BD0C0A00205C030020BE
:102ED0004C0A002060050020600300200010014023
:102EE0002849020E0A70C870020C4A70020A0120BA
:102EF00008768A70002070472249087301E0214952
:102F0000487308B101200876002070471D49012050
:102F1000087600207047F9E710B51A4C207E88B07B
:102F200068B35B21D2208DF800108DF801000021DC
:102F300001208DF802008DF8031018205D218DF816
:102F400004008DF81E10182221460DF1050001F035
:102F50004BF89DF8010001210DF101028BB2491CD3
:102F6000D25C50408AB21C2AF6D38DF81D004FF671
:102F7000FF721F216846FFF78CFF0021217608B001
:102F800010BD0000E80A002080B50E4A0001107054
:102F900002230020507098214FF6FF7000900CE043
:102FA00080B5084A0B0943EA0013137009014FF674
:102FB000FF7351700093982102230348FDF724F911
:102FC00002BD0000020B0020B408002038B51B49E8
:102FD000194C0878174DD8B1194A107B80B14FF4BD
:102FE00000512846FEF7C1FF4FF480512846FEF7F6
:102FF000BCFF2046BDE834404FF40051FEF7B5BF9A
:10300000012200F01FF800224FF4805128460CE006
:10301000002200F017F801224FF480512846FEF7F5
:103020009EFF01224FF400512046BDE83840FEF7D4
:1030300096BF0000000C014000100140CC0A0020A7
:10304000040B00204FF400512846FEF788BF000013
:1030500010B502460123107802E0145D60405B1C4D
:103060009CB28C42F9D3C0B210BDF8B515460446E7
:1030700028780F46C1071E462AD500F0FE002870AA
:10308000687900F0F000A02823D1387D06281FDAE7
:1030900028795B2804BF6A7A5D2A19D10321681D4B
:1030A000FFF7D6FF297A884212D1397D68797854A2
:1030B000791D3A7DA879885407F10A013A7DE879AB
:1030C00088540120397D3944C873387D401C3875D7
:1030D00099E0607A0028FBD1207AA28890422ED213
:1030E00068B3002768888742F2DA281D227AC05D1B
:1030F000711D8854217AA088491C2172C9B2884266
:103100001AD1691DC95DA170A91DC95D5D2976D15E
:10311000C01DE080C11E89B2701CFFF799FFA17825
:1031200081426CD1227A711D8854B11D227A5D20B2
:103130008854E660012060727F1CBFB2D2E7E0884D
:10314000002860D129795B295ED168792070A8793F
:103150006070297AE87901EB0021A180A088A8B9E4
:10316000A97A5D2950D1687AA07004210720E080F7
:103170005B20307000F049F8701CFFF769FFA17800
:1031800081422CD15D20B071717135E0052701E0DD
:103190007F1CBFB26888874235DA281DC05DF055B4
:1031A000A188207A401CC2B291422072F0D105F170
:1031B0000A01C0B2085C5D2803D00021A180217201
:1031C000E180681DC05DA070A088C01DE080C11EA8
:1031D00089B2681DFFF73CFFA178814202D0002030
:1031E000E080F2BD5B203070711C00F00EF8A0781A
:1031F000C855B11C5D20C8550120607203E0002055
:103200002072A080EBE70020F2BD2078707060781B
:10321000B070E879F070287A307170477348744A5A
:1032200000F12C0300F114011FE7F8B56F49487A4B
:103230000022002800F0918000256E4BE8B2185C57
:10324000002800F08C806D1CE8B21028F6DB8AE0C4
:103250000E78694C6019FF2706F0F00CBCF1B00F36
:103260000CD0BCF1C00F1FD0BCF1D00F2DD0BCF1E1
:10327000E00F46D0BCF1F00F45D052E0AB27B22EA4
:10328000077011D14E78012E02D0AC25057034E0C4
:103290000227077480F85060012008744D74585557
:1032A000187C401C187440E0AC27C12E077002D176
:1032B000012606741DE0C22E01D1022602E0C32EB3
:1032C0001BD103260674012613E0AD27D02E07700C
:1032D00013D102744E78012E08D0022E08BF80F858
:1032E000206006D0032E18BF042E06D180F820607F
:1032F00002265E551D7C6D1C1D74012680F85060F1
:1033000010E0AE2600E0AF2606700774012680F8B4
:10331000202080F8506002205855187C401C1874FA
:1033200000E00422087C012814D1344E4D7C307812
:1033300058B901270020377237747074F070203448
:103340002F4E37705E5DA05502E02034012060559D
:10335000022058550020088148601046F2BDEDB2A9
:10336000FF2D7FF475AF0020F2BDFEB5214D287C06
:10337000002839D05B215D208DF800108DF8050004
:1033800000274FF6FF76E85D02282AD11A49CC19AA
:1033900021788DF801100321207C8DF8020094F82B
:1033A00020008DF803000DF10100FFF751FE8DF8AC
:1033B000040094F85000012807D1002184F850102F
:1033C000324606216846FFF764FD94F85000022853
:1033D00004BF002184F850100020E855287C411ECD
:1033E00029747F1C102FCEDB0020FEBD3001002091
:1033F0005C0300201C0B0020EC070020040B0020C5
:10340000CC0A00202DE9FC410646354D3078C10735
:1034100050D5A8690024C10009D4A86940F08050A3
:10342000A8610124A86900F08050009000982D4FF9
:103430003968C80517D4386840F480703860FEF7E2
:10344000AFF880463968C8050DD4FEF7A9F8A0EB9F
:1034500008006528F6D303203FE0FEF7A1F8C01B63
:10346000404519D3F7E7E86910F440701EBF716852
:1034700001F44071884212D01B49E86901220A60B8
:1034800020F4407000220A60E861C00707D5FEF70B
:1034900087F8074641F28938E8698107DDD5E9698F
:1034A000706821F440710143E9611CB1A86920F002
:1034B0008050A8613178880705D52A68B06822F461
:1034C000404202432A603078C10605D529687069F8
:1034D00021F48001014329600020BDE8F68100004D
:1034E00004100240007000404004424280B5204871
:1034F000016841F001010160006800F001000090E6
:1035000000980320FFF7DDF8002200216FF00B0088
:10351000FFF7E4F8002200216FF00A00FFF7DEF861
:10352000002200216FF00900FFF7D8F800220021E7
:103530006FF00400FFF7D2F8002200216FF00300C3
:10354000FFF7CCF8002200216FF00100FFF7C6F86A
:10355000002200214FF0FF30FFF7C0F80548016856
:1035600021F0E0610160026842F00072026001BD7A
:103570001810024004000140F8B504460027002658
:10358000002C7AD004F12405686820B9AE60287058
:103590002046FEF717FE204600F07AF96968CA0651
:1035A0006CD401006AD1696821F4885141F00201AC
:1035B00069602368DFF8BC12E269D4F804C08B426A
:1035C00004BFB2F5402F4FF40022E16842EA0C023A
:1035D000D4F808C0BCF5807F14BFBCF1010F4FF4D4
:1035E0008077D4F814C0BCF1010F42EA41020FD138
:1035F00031B9A169491E490341F400610F4307E055
:10360000696841F020016960A96841F00101A96081
:10361000596821F469410F435F602368DFF858124D
:103620009F680F4017439F60A168B1F5807F18BF66
:10363000012902D12669761E36052168CB6A23F45A
:1036400070031E43CE622468DFF83012A3680B407B
:10365000934208D10021A960696821F0020141F07C
:1036600001016960F2BD686820F0020040F01000BE
:103670006860A86840F00100A86003E0686840F056
:10368000100068600120F2BD10B50446216848684A
:10369000820622D50A6890071FD5A06AC20603D405
:1036A000A06A40F40070A06200F05AF804BFE0681D
:1036B00000280BD14A6822F020024A60A06A20F458
:1036C0008070A062A06AC10400F050F8204600F0AB
:1036D000DEFC21686FF0120008602168486802066D
:1036E0002BD50A68500728D5A06AC20603D4A06A61
:1036F00040F40050A062886800F4E040B0F5E04F6C
:1037000008D04868420511D400F02AF804BFE068E8
:1037100000280BD14A6822F080024A60A06A20F497
:103720008050A062A06AC10500F020F8204600F099
:10373000AFFC21686FF00C000860206841684A0601
:103740000DD50068C1070AD5A06A40F48030A06298
:10375000204600F09EFC21686FF00100086010BD5B
:10376000886800F46020B0F5602F704703D4A06A29
:1037700040F00100A0627047F8B50A46002100F150
:10378000240300911C78012C01D10220F2BD0125F7
:103790001D701F27546815680668072C08D2641E20
:1037A00004EB8404D6F834C000F05EF8756312E0D0
:1037B0000D2C08D2E41F04EB8404D6F830C000F0CE
:1037C00053F8356307E00D3C04EB8404D6F82CC0B5
:1037D00000F04AF8F56207271668946805680A2E13
:1037E00008D30A3E06EB4606D5F80CC000F036F8C2
:1037F000EC6006E006EB4606D5F810C000F02EF8A7
:103800002C611468102C18BF112C23D100681D4C9A
:10381000A0421AD11C48046825021BD4056845F44F
:10382000000505601068102814D1154C174825684C
:10383000B5FBF0F00A2250430090009800281EBF0C
:10384000009A521E0092F8D104E00121586840F01D
:1038500020005860002018700846F2BDB7402CEADE
:103860000707B4403C437047A7402CEA0707A54030
:103870003D437047003C0140FDF7E1FFFE0E1FFF96
:103880002C010020002401400824014040420F0088
:1038900038B5044620688168CA0719D58168490887
:1038A00049008160FDF77CFE054620688168C807F5
:1038B0000ED5FDF775FE401B0328F6D3A06A40F035
:1038C0001000A062E06A40F00100E062012032BD19
:1038D000002032BD10B5040001D1012010BD002030
:1038E000A06294F8510010B92046FEF7EDFC0221C9
:1038F00084F851102068016821F04001016062687D
:10390000A068A1690243E06802432069024360693C
:10391000024301F40071E0690A430243206A024352
:10392000A06A024320680260A169606A090C01F084
:1039300004010143206841602068E16A0161206858
:10394000C16921F40061C16100206065012084F833
:103950005100002010BD000030B500F13C031A7882
:10396000012A01D1022030BD01241C7002225A70AC
:103970000268546824F070045460046865680A683A
:10398000154365600268946824F0800494600268BE
:1039900094684868044394600120587000201870AF
:1039A00030BD000038B5040001D1012032BD00F067
:1039B00022F808B900F023F800F013F800F024F81A
:1039C000FFE7416100F001F832BD2068C16841F4B1
:1039D0000051C1600020686020206870A87000203D
:1039E0007047242068702068C16821F40051C160CC
:1039F000204600F06EBA04F138056878704700215F
:103A000029702046FEF7AEBD2068016921F490417F
:103A100001612068416921F02A0170472DE9F843CE
:103A2000054605F138070C46787820281646984652
:103A30003CD1002C14BF002E012038D0387801284A
:103A400034D0012139702120002179607870FDF790
:103A5000A7FDAE848146EE8403E0296814F8010BCB
:103A60004860E88C28B3E98C481EE8844B46A86877
:103A7000CDF80080B0F5805F0DD100F024F870B96A
:103A800020882968C0F3080048602869002814BF0E
:103A9000641CA41CE5E700F016F80028DDD0032024
:103AA00005E0202078700020387000E00220BDE89A
:103AB000F283CDF800804B460022402100F005F84B
:103AC0000028EED0EBE700228021284667E138B5D8
:103AD000044604F138051346A87820283ED109B1E0
:103AE000180001D1012032BD2878012836D00122EA
:103AF0002A70A162A385002068602220A870626BF2
:103B00000FF211209062626B0FF24120D062626B63
:103B10000FF2412010630020626B50630A46206858
:103B2000011D606BFDF78DFD00200090206801688D
:103B3000009142680092002200992A70C26842F403
:103B40008072C2602068416941F0010141612068D2
:103B5000416941F040014161002032BD022032BD87
:103B600038B5044604F13905206841692A78212ACC
:103B700009D1090607D500F017F808B1FDF79BFD3C
:103B8000204600F03EF9206841696A78222A09D16E
:103B9000490607D500F00EF808B1FDF78CFD204668
:103BA00000F038F9002032BD416921F08001416107
:103BB000206B7047416921F040014161606B7047A3
:103BC00038B5044625682968EA686B6911F00F006A
:103BD00007D188065DD590065BD52046BDE832400A
:103BE0002CE1D80702D412F4907F52D0C80705D533
:103BF000D00503D5E06B40F00100E063480705D530
:103C0000D80703D5E06B40F00200E063880705D5D4
:103C1000D80703D5E06B40F00400E063080705D542
:103C2000D80703D5E06B40F00800E063E06B0028A4
:103C30006ED0890604D5900644BF204600F0FEF8F9
:103C400020684069E16B0A0701D440061BD5204675
:103C500000F0E0F8206841694A060FD5FFF7AAFF97
:103C600060B10FF2CD114163606BFDF73DFD00289F
:103C70004ED0606B416BBDE8344008472046BDE83C
:103C8000324000F007BA204600F004FA0020E0635A
:103C900031BD08062CD510062AD594F83900212804
:103CA00036D1A168206AB1F5805F0DD10188C1F3DA
:103CB00008016960206918B9216A881C206207E040
:103CC000206A411C216203E0411C21620078686087
:103CD000E08C401EE08480B2D0B92068C16821F039
:103CE0008001C1602068C16841F04001C16031BD00
:103CF00048060DD550060BD5E86820F04000E86076
:103D0000202184F839102046BDE8324000F0C3B9C4
:103D100031BD0000416A00680268930613D4002098
:103D2000C8850868C26822F48072C2600868426967
:103D30005208520042610868426922F04002426122
:103D4000202081F83A00084600F0A6B9406A00F049
:103D5000A4B9000038B5446A2068406904F1390507
:103D60002978212906D1000604D50020E0842046C8
:103D700000F047F8206840696978222906D140069A
:103D800004D50020E085204600F044F8E06B40F0C8
:103D90001000E0632046BDE8324000F07BB92DE919
:103DA000F041069C05460E4690461F46286801686D
:103DB0003140B1420CBF01200020404517D114F121
:103DC000010FF3D024B1FDF7EBFBC01B8442EDD211
:103DD0002868C16821F4D07100F00CF805F13800B2
:103DE00020214170817000210170032000E000203B
:103DF000BDE8F081C1602868416949084900416116
:103E000070470168CA6822F0C002CA60202180F8A9
:103E1000391070470168CA6822F49072CA6001685C
:103E20004A69520852004A61202180F83A107047CE
:103E3000406A0021C185C18400F02CB980B590F89A
:103E40003A10222943D18268B2F5805F14D1826A88
:103E5000016941B903685968C1F308011180826A98
:103E6000911C816218E001684B6803F0FF03138026
:103E7000816A4A1C82620FE001690029816A04D1CB
:103E80004A1C82620268536805E04A1C826202682A
:103E9000536803F07F030B70C18D491EC18589B241
:103EA00099B90168CA6822F02002CA600168CA682C
:103EB00022F48072CA6001684A69520852004A615D
:103EC000202180F83A1000F0E7F8002002BD02201F
:103ED00002BD2DE9F0470446642521680A69E068BF
:103EE00022F4405202430A611926CA68314802404E
:103EF000A06802432069024360690243CA604A69BC
:103F0000A06922F4407202432B484A6181420ED1DB
:103F1000FDF71BFB0746FDF718FB8046FDF715FB79
:103F20008146FDF712FB8246FDF70FFB0DE0FDF722
:103F300004FB0746FDF701FB8046FDF7FEFA8146CC
:103F4000FDF7FBFA8246FDF7F8FA06FB09F961680E
:103F500089007743B7FBF1F206FB08F7B7FBF1F3F3
:103F6000B9FBF1F7B7FBF5F705FB17331B0132334C
:103F7000B3FBF5F3B2FBF5F203F0F00303EB02132E
:103F800006FB0AF74643B7FBF1F2B6FBF1F06421FA
:103F9000B0FBF1F005FB10252D0132356420B5FB97
:103FA000F0F0216800F00F00C3188B60BDE8F087C7
:103FB00000000000F3E9FFFF003801407047704740
:103FC000704770477047704731B5FDF7E9FA009DBB
:103FD00015F1010F044618BF6D1CFDF7E1FA001B37
:103FE000A842FAD331BD000062B38B0708D0521E3D
:103FF00011F8013B00F8013B00F024808B07F6D15B
:10400000830740F0208000BF103A07D330B4B1E8F6
:104010003810103AA0E83810F9D230BC530724BF4A
:10402000B1E80810A0E8081044BF51F8043B40F87C
:10403000043BD20724BF31F8022B20F8022B44BFE7
:104040000B7803707047121F17D35B0009D151F82A
:10405000043B20F8023B1B0C121F20F8023BF6D257
:104060000BE051F8043B00F8013B1B0A20F8023B2F
:104070001B0C121F00F8013BF3D238BF121D521E59
:1040800024BF11F8013B00F8013BF8D87047704796
:104090007047704770477047704770472F34383B00
:1040A0003E40434547494B4D4F5052535556585942
:1040B0005B5C5D5E6061626364666768696A6B6CC5
:1040C0006D6E6F70717273747576767778797A7BAE
:1040D0007C7C7D7E7F8081818283848485868787C6
:1040E00088898A8A8B8C8D8D8E8F8F9091919293F7
:1040F000939495959697979899999A9A9B9C9C9D3D
:104100009E9E9F9FA0A1A1A2A2A3A4A4A5A5A6A68E
:10411000A7A8A8A9A9AAAAABABACADADAEAEAFAFEC
:10412000B0B0B1B1B2B2B3B3B4B4B5B5B6B6B7B757
:10413000B8B8B8B7B7B6B6B5B5B4B4B3B3B2B2B130
:10414000B1B0B0AFAFAEAEADADACABABAAAAA9A9A2
:10415000A8A8A7A6A6A5A5A4A4A3A2A2A1A1A09F22
:104160009F9E9E9D9C9C9B9A9A99999897979695AD
:1041700095949393929191908F8F8E8D8D8C8B8A45
:104180008A898887878685848483828181807F7EEF
:104190007D7C7C7B7A7978777676757473727170B2
:1041A0006F6E6D6C6B6A6968676664636261605E9E
:1041B0005D5C5B595856555352504F4D4B494745DE
:1041C00043403E3B38342F2300A24A0438B504460E
:1041D00020684168826802F04103012B06D14D0638
:1041E00004D5216C2046BDE834400847930706D526
:1041F0000B0604D5616C2046BDE83440084712F038
:10420000600F50D08B064ED553060ED594F8513022
:10421000032B3BD0656D45F00405656500230093D5
:10422000C568009583680093009D92060CD5626D69
:1042300042F00102626500230093826800920368E5
:1042400023F0400303600098606D60B3206842680B
:1042500022F0E0024260012011F0030F84F85100C7
:104260001CD020680FF2410541688908890041602F
:10427000E06C18B14563E06CFDF736FAA06C90B1C4
:104280004563A06CBDE83240FDF72EBA00210091D5
:10429000C268009280680090009931BD2046BDE858
:1042A000324000F007B831BD406A0021C187C186A5
:1042B00000F000B8704700007047FEE7FEE7FEE739
:1042C000FEE770477047704780B500F049F8BDE8D9
:1042D0000140FEF757BA1748FDF774BA1648FDF7C4
:1042E00071BA1648FDF76EBA1548FFF7CDB91548F3
:1042F000FEF776BA1448FCF75AB81348FCF770B9C1
:104300001248FFF763BF10B5114C2046FEF756FD6B
:1043100004E010B50F4C2046FEF760FD2046BDE8D6
:104320001040FFF74DBC0C48FEF75ABA0B48FEF799
:1043300057BA00000809002064070020A8070020E1
:104340008C0A00204C090020B40800205C080020E2
:104350000C0A00204C0A00208C090020CC09002007
:1043600002480168491C0160704700BF400B0020F3
:104370000E49086840F0010008604A680C48024095
:104380004A600B680B4803400B60086820F48020EB
:1043900008604FF41F004A6822F4FE024A608860F9
:1043A0004FF00060044908607047000000100240B0
:1043B0000000FFF8FFFFF6FE08ED00E0000000003F
:1043C00000000000010203040607080919E050F884
:1043D000042BD30744BFA9F101039A18091F002336
:1043E000042942F8043BF9D25FEA817C134604D5E4
:1043F0004FF0000CA2F800C09B1CC90744BF00216D
:10440000197050F8041B0029E1D1704710B450F81E
:10441000041B79B10268436802440830DC0744BFDA
:10442000A9F10104E31852F8044B43F8044B091FA7
:10443000F9D1ECE710BC704710B507497944183141
:10444000064C7C44163404E00A68081D1144884771
:104450000146A142F8D110BD08000000280000006C
:104460006DFFFFFF140A0000300100200000000073
:104470009DFFFFFF3001000024FCFFFF0000002033
:104480000000000000F00DF8002801D0FFF7D4FF75
:10449000AFF300800020AFF30080FDF7A3FA00F037
:1044A00002F80120704700F001B8000007463846C6
:1044B00000F002F8FBE7000080B5AFF30080024A8D
:1044C00011001820ABBEFBE7260002000148804720
:1044D0000148004771430008DD440008AFF3008045
:1044E000AFF30080FFF7CEFF0000000001020304DD
:1044F000FFF7FEBFFFF7FEBFFFF7FEBFFFF7FEBFF0
:10450000FFF7FEBFFFF7FEBFFFF7FEBFFFF7FEBFDF
:10451000FFF7FEBFFFF7FEBFFFF7FEBFFFF7FEBFCF
:10452000FFF7FEBFFFF7FEBFFFF7FEBFFFF7FEBFBF
:10453000FFF7FEBFFFF7FEBFFFF7FEBFFFF7FEBFAF
:10454000FFF7FEBFFFF7FEBFFFF7FEBFFFF7FEBF9F
:10455000FFF7FEBFFFF7FEBFFFF7FEBFFFF7FEBF8F
:10456000FFF7FEBFFFF7FEBFFFF7FEBFFFF7FEBF7F
:10457000FFF7FEBFFFF7FEBFFFF7FEBFFFF7FEBF6F
:10458000FFF7FEBFFFF7FEBFFFF7FEBFFFF7FEBF5F
:10459000FFF7FEBFFFF7FEBFFFF7FEBFFFF7FEBF4F
:1045A000FFF7FEBFFFF7FEBFFFF7FEBFFFF7FEBF3F
:04000005080044DDCE
:00000001FF
